:020000040800F2
:100000006807002065010008D91B0008151A0008C0
:1000100000000000000000000000000000000000E0
:10002000000000000000000000000000191C000893
:100030000000000000000000DB1B0008951C000809
:100040007701000800000000770100087701000830
:1000500077010008770100087701000877010008A0
:100060000000000077010008770100087701000810
:100070007701000877010008770100080000000000
:100080007701000800000000000000007701000870
:1000900000000000770100087701000877010008E0
:1000A000770100087701000877010008412B00085C
:1000B00077010008000000000000000000000000C0
:1000C00000F002F800F03EF80CA030C80838241800
:1000D0002D18A246671EAB4654465D46AC4201D180
:1000E00000F030F87E460F3E0FCCB6460126334274
:1000F00000D0FB1AA246AB4633431847D02C000071
:10010000F02C0000103A02D378C878C1FAD8520710
:1001100001D330C830C101D504680C6070470000BD
:100120000023002400250026103A01D378C1FBD813
:10013000520700D330C100D50B6070471FB51FBDFB
:1001400010B510BD00F0FAF81146FFF7F7FF02F006
:100150003FFD00F012F903B4FFF7F2FF03BC00F01B
:1001600019F900000748804707480047FEE7FEE707
:10017000FEE7FEE7FEE7FEE704480549054A064BB1
:1001800070470000011D0008C10000086801002040
:1001900068070020680300206803002001E004C015
:1001A000091F0429FBD28B0701D50280801CC907D7
:1001B00000D00270704700290BD0C30702D0027034
:1001C000401C491E022904D3830702D50280801CEB
:1001D000891EE3E70022EEE70022DFE700220309A1
:1001E0008B422CD3030A8B4211D300239C464EE052
:1001F00003460B433CD4002243088B4231D303090E
:100200008B421CD3030A8B4201D394463FE0C309BF
:100210008B4201D3CB01C01A524183098B4201D3D7
:100220008B01C01A524143098B4201D34B01C01AC2
:10023000524103098B4201D30B01C01A5241C3083A
:100240008B4201D3CB00C01A524183088B4201D3A9
:100250008B00C01A524143088B4201D34B00C01A95
:100260005241411A00D201465241104670475DE0AA
:10027000CA0F00D04942031000D34042534000222D
:100280009C4603098B422DD3030A8B4212D3FC22D6
:10029000890112BA030A8B420CD3890192118B4255
:1002A00008D3890192118B4204D389013AD092116B
:1002B00000E08909C3098B4201D3CB01C01A524126
:1002C00083098B4201D38B01C01A524143098B42EF
:1002D00001D34B01C01A524103098B4201D30B01D8
:1002E000C01A5241C3088B4201D3CB00C01A5241FD
:1002F00083088B4201D38B00C01A5241D9D24308E4
:100300008B4201D34B00C01A5241411A00D2014620
:10031000634652415B10104601D34042002B00D58A
:100320004942704763465B1000D3404201B500204C
:10033000C046C04602BD704770477047754600F022
:1003400025F8AE46050069465346C008C0008546FC
:1003500018B020B5FFF710FF60BC00274908B6466B
:100360000026C0C5C0C5C0C5C0C5C0C5C0C5C0C5C4
:10037000C0C5403D49008D46704710B50446C04693
:10038000C0462046FFF7E7FE10BD0000004870475A
:100390000801002001491820ABBEFEE7260002003C
:1003A0007047052424070421204600F042F932203A
:1003B00000F07AF8F7E70000F0B5002808D0014611
:1003C00020314A79022A05D00422C2630020087134
:1003D0000120F0BD026813680E24A3431360426C31
:1003E0001468FF2301339C43146002681468640896
:1003F000640014600C4A5568066C1C2426400124D5
:100400002746B7403D435560826CC56C5560026D10
:10041000002A05D015689D431560826D406D4260CD
:100420004C7100200871F0BD00000240F8B50024B6
:10043000024620325179022903D00421C1630124EC
:100440002DE001680B680E25AB430B6001680B685B
:100450005B085B000B60416C0B68FF250135AB430B
:100460000B6010494D68066C1C231E4001231F467B
:10047000B7403D434D60816CC56C4D60016D0029F6
:1004800006D00E681D02AE430E60416D856D4D6055
:10049000537100211171816B002900D088472046DB
:1004A000F8BD00000000024070B5044600F0D0F82E
:1004B0000546601C02D004480078241800F0C8F8F3
:1004C000401BA042FAD370BD18000020F0B50023F5
:1004D00003249AE02A4601259D402A407ED00E79C9
:1004E000B607B60F012E01D0022E16D18668274618
:1004F000B4465E00B646B7406646BE43B446CF68D3
:100500007646B7406646374387604668AE430D7906
:10051000ED06ED0F9D40354345600D79ED43AD0788
:1005200008D0C5685F002646BE40B5438E68BE4011
:100530002E43C6600D79AD07AD0F022D0ED1DD083B
:10054000AD002D18AC462D6A5E07F60E0F27B7409A
:10055000BD430F69B7402F4365462F6205685F00B2
:100560002646BE40B5430E79B607B60FBE402E43B1
:1005700006604D68AD03AD0F46D09E08264DB6000F
:100580007519AC462D6E9E07F60E0F27B740BD437A
:1005900005273F07B84201D100270FE01F4FB8429F
:1005A00001D101270AE01E4FB84201D1022705E020
:1005B0001C4FB84201D1032700E00527B7402F4365
:1005C000154D664637662D684E689543F60200D590
:1005D0001543114F3D607D68954300E014E04E687F
:1005E000B60200D515437D600B4D80356E684F68AF
:1005F0009643BF0300D516436E602E684F6896433E
:10060000FF0300D516432E605B1C0A681546DA40CE
:1006100000D05FE7F0BD0000001802400004005069
:1006200000080050000C00500069084000D0012074
:100630007047426913460B401B0491430B4383618F
:100640007047002A01D081617047816270470000C5
:100650000148806870470000180000200248816847
:1006600002788918816070471800002010B508488A
:1006700000240168821511430160032000F00AF88C
:10068000002801D0012401E000F028F8204610BD28
:100690000020024070B50F4E002431780546002935
:1006A00015D07D20C000FFF799FD01460A4800687B
:1006B000FFF794FD00F0F6FB002808D1042D06D2C8
:1006C00000222946401E00F02BF8756000E001244E
:1006D000204670BD180000202400002008B50948FD
:1006E0000168012211430160006810400090054834
:1006F0004038C26B01040A43C263C06B08400090DB
:1007000008BD000040100240002805DBC106C90EEC
:1007100001208840014908607047000000E100E0C6
:1007200010B502F033FA10BD10B50F4C216803224A
:100730005202914301432160C11FFF39FA390ED1A2
:100740000A480621006848430949FFF747FD401C55
:1007500002E0002805D0401E61694905F9D4002057
:1007600010BD032010BD00000070004024000020D8
:1007700040420F00F8B50446006800264D4D800346
:1007800058D54C4800274038C06BC00009D44948B0
:100790004038C26B01040A43C263C06B08400127A2
:1007A000009045480168821511430160FFF750FF32
:1007B000009005E0FFF74CFF0099401A022825D869
:1007C0003D480068C005F5D5E869032109020840E5
:1007D0000FD0616981420CD0E86903210902EA69FE
:1007E0008843012109040A43EA61EA698A43EA610C
:1007F000E861C0070FD0FFF72BFF009008E0FFF77C
:1008000027FF0099411A2D48814201D9032609E0AA
:10081000E8698007F3D5E869032109028843616923
:100820000843E861002F05D022484038C26B01041C
:100830008A43C2632078C00705D068696168800870
:100840008000084368612078800606D56869032126
:1008500009038843A168084368612088400411D5D2
:100860006869216980008008084368610121206966
:100870008907884206D10F484038C1680122120416
:100880001143C1602088000512D5686903218903DE
:100890008843E168084368610121E0688903884270
:1008A00006D104484038C168012212041143C160D6
:1008B0003046F8BD40100240007000408813000030
:1008C000F8B50F46060043D04D4D28684007400F4D
:1008D000B84213D22868C008C00038432860FFF728
:1008E000B7FE044605E0FFF7B3FE011B4548814211
:1008F00061D828684007400FB842F4D13068424CB4
:1009000081070DD5400704D5A068072109030843D6
:10091000A060A0680F2109028843B1680843A06065
:100920003078C00732D0706801280AD002280BD076
:1009300000280FD03449403103280ED0C9698907F7
:1009400004E02168890301E021688901002906DBB0
:100950000120F8BD21684905F8E7096AEFE7A168B9
:10096000C908C9000143A160FFF772FE009006E0CC
:10097000FFF76EFE0099411A224881421BD8A068F9
:10098000382108407168C9008842F1D128684007C1
:10099000400FB84217D91A480168C908C90039433D
:1009A0000160FFF755FE054607E0FFF751FE411BCA
:1009B0001448814201D90320F8BD1148006840075E
:1009C000400FB842F1D13078400706D5A068072122
:1009D00009038843F1680843A06000F031F8A1687A
:1009E0003C2289091140094A515CC906C90EC84018
:1009F0000749086007480068FFF74CFEF8BD000093
:100A00000020024088130000001002406C2D0008F6
:100A1000240000201C00002006480749006889685F
:100A2000064A4904490F8900515CC906C90EC840ED
:100A3000704700002400002000100240AC2D000888
:100A400010B5204CA068204A8006400F16D0A06840
:100A50008006410F501001290FD0A1688906490F67
:100A6000022912D0A0688006400F042823D0A06875
:100A70008006400F032821D0002010BD20680121EE
:100A80008004400F8140104612E0E1688B07E16866
:100A90009B0F4906490F491C032B00D01046FFF756
:100AA0009DFBE1684904490E4843E168490F491C30
:100AB000FFF794FB10BD0120C00310BD7D20000294
:100AC00010BD0000001002400024F400F8B504003E
:100AD0007ED020783827C007E94D002846D0A86886
:100AE000E96838408907890F102802D008280BD000
:100AF00001E0032908D001206268000482420AD183
:100B000029680143296015E0286880032ED56068B4
:100B10000028DDD02AE0052301211B0489049A4224
:100B20002A6802D10A432A60EAE782432A602868D9
:100B300088432860606800280CD0FFF789FD0646CE
:100B400004E0FFF785FD801B642873D828688003C4
:100B5000F7D50BE0FFF77CFD064604E0FFF778FDD4
:100B6000801B6428F1D828688003F7D42078800798
:100B700069D5A868E96838408A070721920FC90239
:100B8000102802D0002813D001E0022A10D0E0681B
:100B9000002846D0286888432169084328602868CF
:100BA000FF21013108432860FFF752FD06462CE083
:100BB0002A68520502D5E268002A89D06A687F2334
:100BC0001B029A4363691B021A436A60002800E013
:100BD0008DE00ED128688843216908432860286881
:100BE00001218004400F8140A648FFF7F7FAA6498B
:100BF0000860A6480068FFF74DFD002877D122E085
:100C0000FFF726FD801B02289FD828684005F7D5EE
:100C100068687F21090288436169090208436860A6
:100C200011E02968FF20013081432960FFF710FDA2
:100C3000064605E098E0FFF70BFD801B022884D8EC
:100C400028684005F7D42078914E00072ED5A86873
:100C50008006400F03280AD0A0690028306A16D009
:100C6000012108433062FFF7F3FC07460BE0306ACE
:100C700080071BD5A06900289FD017E0FFF7E8FC8C
:100C8000C01B022870D8306A8007F7D50EE04008F4
:100C900040003062FFF7DCFC074604E0FFF7D8FCB9
:100CA000C01B022860D8306A8007F7D4207840073C
:100CB0006CD5A86800278006400F042818D0E86B80
:100CC000C00008D4E96B012000070143E963E96B28
:100CD0000140012700916F480168C90519D40168D6
:100CE000821511430160FFF7B3FC00900DE083E033
:100CF000F06980074AD5A06800287DD046E0FFF75C
:100D0000A7FC0099401A02282ED862480068C00546
:100D1000F5D5A168012910D004200529F16911D069
:100D200049084900F161F1698143F161A068002837
:100D300016D0FFF78DFC00900EE0F069012108430A
:100D4000F061F3E70143F161F7E7FFF781FC0099F8
:100D5000411A5148814265D8F0698007F5D50EE007
:100D6000FFF776FC009007E05CE0FFF771FC00996C
:100D7000411A4948814255D8F0698007F5D4002FBF
:100D800004D0E96B012000078143E963E069002892
:100D900073D0A9688906490F02294DD0012636066D
:100DA0000228286805D0B0432860FFF751FC0446AC
:100DB0003AE0B0432860FFF74BFC074604E0FFF73A
:100DC00047FCC01B02282DD828688001F7D4616A2F
:100DD000206AA26A0843E16A120211430843216BA8
:100DE0000843E9682D4A11400843E8602868304309
:100DF0002860E868012100E03DE009070843E86059
:100E0000FFF726FC044604E0FFF722FC001B022843
:100E100008D828688001F7D52FE0FFF719FC001BE0
:100E2000022801D90320F8BD28688001F5D4E868BC
:100E30001B490840E86020E00128F4D0E868226AF5
:100E40008107890F914216D17021626A0140914257
:100E500011D17F21A26A09020140120291420AD1F6
:100E60001F214904E26A0140914204D1400F216BE5
:100E70004007884201D00120F8BD0020F8BD0000E5
:100E8000001002400024F400240000201C00002078
:100E90004010024000700040881300008C80C11F89
:100EA000FCFFFEEF094910B5401E884201D9012020
:100EB00010BD074C60610321081F01F067FE002090
:100EC000A06107202061002010BD0000FFFFFF008F
:100ED00000E000E030B5034620331A7F012A49D0F4
:100EE00001221A770325CA682D02AA438D6800687B
:100EF0002A430125AD02AA434D6800242A43012557
:100F0000ED02AA430D682A4301252D03AA430D696A
:100F10002A4301256D03AA434D692A430125AD03E8
:100F2000AA430D6B2A430F252D04AA430D8B2D04D4
:100F30002A4301252D07AA43CD692A430E4DA84215
:100F400014D10F252D05AA430D8D2D052A4301250A
:100F50002D06AA430D6A2A4301256D06AA434D6A50
:100F6000C96A2A4301256D07AA430A4342641C77D4
:100F7000002030BD022030BD002C0140F0B50346FA
:100F800020331A7F012A24D001221A7702225A77AD
:100F900004686268A568104FBC4205D116460F224E
:100FA000120596434A6832437026B2430E681643D0
:100FB00066600068B84202D0084A904204D180229C
:100FC000896895432943816001205877002018776C
:100FD000F0BD0220F0BD0000002C014000040040E4
:100FE00070B5040005D025462035687F002802D062
:100FF00006E0012070BD00202877204600F016F89A
:1010000002206877211D206800F07CFE0122403418
:101010002272AA77EA7722706270A270E27022715F
:101020006271A271E2716A77002070BD08B5006834
:101030000549884207D105480268C1140A43026085
:1010400000680840009008BD002C0140401002409C
:10105000F8B5054604462035287F0026012817D01C
:1010600001272F7702206877226890682F4B18405D
:10107000FF231B02984390600868502838D00EDC8C
:1010800020284FD006DC00284CD010281ED149E083
:101090000220F8BD302845D0402817D13AE060281A
:1010A0002ED0702818D001221203801A0FD090423F
:1010B0000CD1CB684A688968206800F074FE20680B
:1010C0008168012292031143816000E001266F775D
:1010D000002028773046F8BDCB684A6889682068C8
:1010E00000F061FE21688868772210438860EEE78F
:1010F000CA684968206800F0B9FF5021206806E0FE
:10110000CA684968206800F0C2FF6021206800F0CA
:1011100055FEDCE7CA684968206800F0A7FF402157
:101120002068F4E7226801461046F0E788FFCEFF0A
:1011300010B586B0044614216846FFF74DF80E49F5
:101140002068884215D10D48416B0122114341634B
:10115000406B022110400590092000020090002001
:101160000290039001910491052069460007FFF762
:10117000ADF906B010BD0000002C01400010024087
:10118000F8B504460020264620360090307F0D46F4
:1011900001280CD00120082730770C2A48D008DC21
:1011A000002A10D0042A1ED0082A06D130E00220DE
:1011B000F8BD102A52D0142A60D0012000900020DF
:1011C00030770098F8BD206800F002FE2068816941
:1011D00039438161206881690422914381612068DB
:1011E00081692A6911E0206800F030FE2068816979
:1011F0000122D2021143816120688169521091431A
:101200008161206881692A69120211438161D6E7F0
:10121000206800F059FE2068C1693943C161206827
:10122000C16904229143C1612068C1692A6912E041
:10123000206800F087FE2068C1690122D2021143B4
:10124000C1612068C269012189028A43C2612068A4
:10125000C1692A6912021143C161B0E7206800F038
:10126000A5FE2068416D394341652068426D042127
:101270008A4342652068416D2A6912E0206800F0C7
:10128000C3FE2068416D0122D202114341652068EE
:10129000426D012189028A4342652068416D2A69B5
:1012A0001202114341658AE770B5040005D0254656
:1012B0002035687F002802D006E0012070BD0020A4
:1012C0002877204600F016F802206877211D206854
:1012D00000F018FD012240342272AA77EA772270CA
:1012E0006270A270E27022716271A271E2716A771B
:1012F000002070BD7047000030B505460223203045
:1013000000290ED0042911D02C464034082912D0CF
:101310000C2915D0102918D0E278012A1AD0012002
:1013200030BD827F012AFAD1837714E0C27F012A7F
:10133000F5D1C3770FE02278012AF0D123700AE0BB
:101340006278012AEBD1637005E0A278012AE6D128
:10135000A37000E0E3700122286800F017FD114A35
:101360002868904205D01049884202D00F4988422F
:1013700004D1416C0123DB03194341642868012136
:10138000904202D00A4A904207D18268094B1A4023
:10139000062A05D0DB1F9A4202D002680A43026087
:1013A000002030BD002C01400044014000480140B5
:1013B000000400400700010010B5014680310A79A1
:1013C000012A15D001220A7124228A60026813685A
:1013D00014686408640014600122520793430022D9
:1013E000426600680360202088600A71104610BDC4
:1013F000022010BD7047704770B504460546803422
:10140000207901281AD0012020712420A0602868AA
:101410000668026852085200026028688268072342
:101420005B069A430A438260284600F043FE286820
:1014300006602020A0600020207170BD022070BDD9
:1014400070B50446054680342079012819D0012062
:1014500020712420A06028680668026852085200A3
:10146000026028688268D200D2080A438260284657
:1014700000F020FE286806602020A0600020207177
:1014800070BD022070BD704770477047F8B50368A3
:101490000446D96918689A68B44D0E462E40254610
:1014A0008035002E75D0B24EB24F164007403743FC
:1014B0006ED0CF0706D0C70504D501271F622B6960
:1014C0003B432B618B0708D5D30706D0276802233F
:1014D0003B622B6904273B432B614B0708D5D3079D
:1014E00006D0276804233B622B6902273B432B610C
:1014F0000B0709D520230340334305D02668082372
:1015000033622E691E432E610B0509D5430107D5B1
:1015100001232668DB0233622B69202633432B61CB
:101520002B69002B42D089060AD520210840C90525
:101530000A40104304D0616F002901D0204688473B
:10154000286921688968490602D42821084232D0D6
:10155000204600F09DFE21688868400627D5EFF3FD
:101560001080012282F310888B68402293438B60A5
:1015700080F310882868002819D07F498163286883
:10158000FEF754FF002811D02868816B0DE000E0C1
:1015900017E08E0615D5012720263F070640174085
:1015A0003E430ED0616FB5E020468847F8BD204627
:1015B000FFF76BFFF8BD2046FFF767FF00202861AB
:1015C000F8BDE66E012E7DD1CE067BD5C60679D557
:1015D00010221A6223689868264640064036002882
:1015E00049DA2968086840680004000CE8D0B78B25
:1015F0008742E5D9F08308680068800634D4EFF3A9
:101600001080012181F3108819681701B94319600E
:1016100080F31088EFF31080012181F31088216896
:101620008B685B085B008B6080F31088EFF31080A1
:10163000012181F3108821688B684027BB438B60B0
:1016400080F310882020E8600020E066EFF310802F
:10165000012181F3108821680B6893430B6080F3AC
:1016600010882868FEF7A8FE02202067B08BF18B57
:10167000401A81B235E0B08BF18B401A81B2F08B09
:1016800000289DD000299BD0EFF31080012686F31F
:1016900010881E68FF272137BE431E6080F3108824
:1016A000EFF31080012383F3108823689E68304F86
:1016B000FF433E409E6080F310882020E8600020B9
:1016C000E06600E011E06067EFF31080012383F330
:1016D000108823681D6895431D6080F310880220E0
:1016E00020672046FFF786FEF8BDCE0208D55602D9
:1016F00006D50120000518622046FFF7C5FEF8BD9B
:101700000E060BD501278026FF0506403A401643FA
:1017100004D0A16F002900D046E7F8BD4A0614D5D1
:10172000420612D52046EFF31081012282F3108881
:101730001A684024A2431A6081F310882021A9600E
:101740000021816700F065F9F8BD0A0205D5420065
:1017500003D52046FFF797FEF8BDC901FCD5002848
:10176000FADA2046FFF747FEF8BD00000F08000038
:1017700001000010200100047D22000870B5040063
:1017800005D025468035A868002802D006E0012053
:1017900070BD00202871204600F026F82420A860A3
:1017A00020680168490849000160A06A002802D049
:1017B000204600F0A1FC204601F020F80128E7D0E7
:1017C000206841680922D202914341602068816803
:1017D0002A2291438160206801680122114301603F
:1017E000204600F0EFFC70BD10B58CB0044614210B
:1017F0006846FEF7F1FC182105A8FEF7EDFC1A4932
:10180000206888422DD1012000240590069405A867
:10181000FEF7B0FF002801D0FEF7C3FD13480268B1
:10182000012189030A430260006808400B900F48B9
:101830004038426B02210A434263406B6A460840CB
:101840000B90C02013C20394694609480494FEF724
:101850003DFE002211461B20FEF762FF1B20FEF713
:1018600053FF0CB010BD0000003801404010024092
:101870000004005070B58C231B58202B01D002208F
:1018800070BD00290BD0002A09D0012483682403ED
:10189000A34206D10369002B03D1CB0701D001205D
:1018A00070BD0023C366046863681B020BD5EFF3A9
:1018B0001083012585F3108825680126B606354377
:1018C000256083F3108801F05DF870BD70B5006885
:1018D000194988422ED105242407012208212046D7
:1018E000FEF7AFFE154900204B790D460122143555
:1018F000AA2B0ED08E78002E0FD04E78042E0CD24C
:10190000AB55761CF3B24B70042B08D38870CA70A9
:1019100005E08A702B704A7001E0887048700022E0
:1019200008212046FEF78DFE04490122491D044886
:10193000FFF7A0FF70BD000000380140000000204C
:1019400074000020FFB5064604468036B06883B0B8
:101950000D46202802D0022007B0F0BD002D0CD08B
:101960000598002809D00120A1680003814206D112
:101970002069002803D1E80701D00120ECE700200E
:1019800030612120B060FEF763FE019027464037AA
:101990000598B8820598F8820120A1680003814269
:1019A00002D12069002802D00295002515E0002010
:1019B000029012E000228021204601F079F80028F0
:1019C00018D10298002819D02168007888620298FE
:1019D000401C0290F88A401EF882F88A019B002879
:1019E00006980090E6D100224021204601F060F8E0
:1019F00000280AD02020B0600320ADE728882168A5
:101A0000C005C00D8862AD1CE4E72020B060002056
:101A1000A2E77047FEE70000F0B587B014216846E2
:101A2000FEF7DAFB1348416B022529434163416B02
:101A300029400591416B012421434163406B0527F7
:101A400020403F070590002229463846FEF7F9FD61
:101A5000002600946946384601960294FEF736FD4A
:101A6000029669463846039600950194FEF72EFDCE
:101A700007B0F0BD0010024010B59CB000241994CE
:101A80001A9417941894149415941C210DA8169464
:101A9000FEF7A2FB34216846FEF79EFB314932482F
:101AA00012C004608460C460304904614160083839
:101AB000FFF796FA002801D0FEF773FC012000031F
:101AC000179017A92848FFF7C3FA002801D0FEF79E
:101AD00068FC2548FFF7E8FB002801D0FEF761FC11
:101AE0001494159414A920481694FFF747FA002877
:101AF00001D0FEF756FC602012940E940D900F94C6
:101B00001094119400220DA913941748FFF738FB85
:101B1000002801D0FEF745FC0C220DA91248FFF762
:101B20002FFB002801D0FEF73CFC0120009440036D
:101B3000059001940294049400030394069407947E
:101B4000099008940A940B9469460C940648FFF790
:101B5000C1F9002801D0FEF724FC0348FFF7E8FA9A
:101B60001CB010BD002C014028000020FFF900002F
:101B700010B51848164901604B21C9014160002188
:101B80008160C16001618161C16101620C224162B9
:101B900042618162FFF7F2FD002801D0FEF701FCEF
:101BA00000210C48FFF74CFC002801D0FEF7F9FBA0
:101BB00000210848FFF720FC002801D0FEF7F1FBC8
:101BC0000448FFF7F9FB002801D0FEF7EAFB10BD3F
:101BD0000038014074000020FEE7704710B50D4842
:101BE0000178AA2914D14178FF2901D005290FD104
:101BF000817801290CD1C078022809D8054C143C01
:101C0000207000F0A5FFE068401CE060012020711A
:101C100010BD0000140000207047000038B51AA164
:101C2000096800916946C87005242407012204212F
:101C30002046FEF706FD012202212046FEF701FDA7
:101C40000120FEF731FC6423042269460F48FFF7A8
:101C500079FE0F488168491C81600C480068C169A1
:101C6000C9434906FBD40120FEF71EFC00220221D5
:101C70002046FEF7E6FC0A20FEF716FC00220421AF
:101C80002046FEF7DEFC38BDAAFF010074000020EC
:101C90000000002010B5FEF7E1FC10BD30B591B09A
:101CA00034216846FEF798FA002501200D950E951F
:101CB0000F9540021095FEF737FD0224E0010390D6
:101CC00000944020059008200A9080030B90079410
:101CD000000304950C90099508946846FEF7F6FEFB
:101CE000002809D107200DA931C102210DA81095A6
:101CF000FEF7E6FD002801D0FEF753FB11B030BD22
:101D00007047000070B502681B4B1C4E984201D012
:101D1000B04203D17024A2434C682243184C194DA1
:101D2000984208D0B04206D0174EB04203D0A0422D
:101D300001D0A84204D103263602B243CE68324312
:101D40008026B2434E69324302608A68C2620A68E2
:101D50008262984203D0A04201D0A84201D1096911
:101D60000163012141610169C90703D00169490883
:101D70004900016170BD0000002C014000040040DA
:101D800000440140004801400020004010B5CB064F
:101D9000DB0E0121046A99408C430462016A9A4077
:101DA0001143016210BD30B58468FF252D021B026E
:101DB0001343AC430B432343836030BD8268034B22
:101DC0001A400A4307210A43826070478FFFCFFF02
:101DD000F0B5056A026A52085200026243688269DD
:101DE000164C184E224092080C68920014430222AE
:101DF00095438A682A43124DA84204D0B04202D0CB
:101E0000114FB84206D10827BA43CF6817430422BE
:101E100097433A46A84204D0B04202D00A4DA842A5
:101E200006D103252D02AB434D691D438B692B431E
:101E300043608461496841630262F0BD8FFFFEFF29
:101E4000002C0140004401400048014070B5046A84
:101E5000026A10239A43026243688269164D2A403F
:101E600003252D02AA430D682D0215432022944319
:101E70008A6812012243114CA04207D18024A24358
:101E8000CC68402624012243B24305E00C4CA0421A
:101E900002D00C4CA04208D10324A402A3434C69F5
:101EA000A4001C438B699B00234343608561496800
:101EB0008163026270BD0000FF8FFFFE002C0140B5
:101EC000004401400048014070B5046A026AFF23E3
:101ED00001339A4302624368C269164D2A40920850
:101EE0000D68920015430122520294438A6812023F
:101EF0002243114CA04208D11446CA68C614B44308
:101F0000120222430415A24305E00C4CA04202D069
:101F10000B4CA04208D103242403A3434C692401A1
:101F20001C438B691B0123434360C5614968C1633E
:101F3000026270BD8FFFFEFF002C01400044014093
:101F40000048014030B5046A026A01231B039A432A
:101F500002624368C269114D2A4003252D02AA433B
:101F60000D682D0215430122520394438A6812031F
:101F700022430B4CA04205D00A4CA04202D00A4C8E
:101F8000A04205D10124A403A3434C69A401234327
:101F90004360C56149680164026230BDFF8FFFFE86
:101FA000002C0140004401400048014070B5036A24
:101FB000026A01263604B24302624268456D0E4C45
:101FC00025400C682C437500AB430D892D041D433F
:101FD0000A4B984205D00A4B984202D0094B9842CE
:101FE00003D14B69B2431B021A43426044654968FE
:101FF0008165056270BD00008FFFFEFF002C01406F
:10200000004401400048014070B5046A026A01239F
:102010001B059A4302624268436D104D2B400D68C8
:102020002D021D4301235B059C430B891E050C4BB0
:102030002643984205D00B4B984202D00A4B984257
:1020400006D101241346A4044A69A34392021A4309
:10205000426045654968C165066270BDFF8FFFFE3D
:10206000002C0140004401400048014030B5036AA3
:10207000046A6408640004628469F025AC431201B8
:1020800022430A24A3430B438261036230BD30B56F
:10209000046A036A1025AB43036283690F252D038D
:1020A0001203AB431A43A0239C43090121438261DD
:1020B000016230BDF8B50446416E4034002915D0A8
:1020C00000688168806809014D0F0A4E400F37464D
:1020D000315C083F385CC000FEF780F86085785DB1
:1020E000715DC000FEF77AF82085F8BD012060859B
:1020F000FAE70000642D000810B5018D090707D527
:1021000001684A680123DB039A43836B1A434A60E0
:10211000018DC90707D001684A6801235B049A430F
:10212000C36A1A434A60018D890707D501684A6866
:1021300001231B049A43036B1A434A60018D49072C
:1021400007D501684A6801239B049A43436B1A43ED
:102150004A60018DC90607D50268916801231B03F7
:102160009943C36B19439160018D890607D50168B6
:102170008A6801235B039A43036C1A438A60018DCA
:10218000490612D503685A6801210905446C8A433F
:1021900022435A60426C8A4207D102685168032385
:1021A0005B059943836C19435160018D090607D57E
:1021B00001684A680123DB04C06C9A4302434A6009
:1021C00010BD0000FEB505460026803504462E6190
:1021D000FEF73EFA019020680068202700070028DB
:1021E00017DA25480090002239042046019B00F0B0
:1021F0005FFC00280DD0EFF31080012181F31088DF
:1022000021680A6880239A430A6080F31088AF60CF
:1022100028E020680068400727D517480090012172
:10222000002289052046019B00F042FC00281CD0BA
:10223000EFF31080012181F3108821680A68FF23E1
:1022400021339A430A6080F31088EFF31080012154
:1022500081F3108821688A68520852008A6080F3EE
:102260001088EF602E710320FEBDAF60EF60E66660
:1022700026672E710020FEBDFFFFFF0110B5806AAA
:10228000002201464031CA83CA82FFF7FEF810BD22
:1022900010B5EFF31081012282F3108802681368F1
:1022A000FF242134A343136081F31088EFF31081DE
:1022B000012282F31088026893680D4C23409360DA
:1022C00081F31088C16E01290BD1EFF31081012237
:1022D00082F31088026813681024A343136081F30B
:1022E000108820228C210A500021C166416710BD50
:1022F000FEFFFFEF70B501464031034680330C8C82
:10230000DD680268222D04D090690821084390619D
:1023100070BD526A856D22402A80826D921C826552
:10232000CA8B521ECA83CA8B002AF1D1EFF31082E6
:10233000012484F3108804682568FF262136B543FC
:10234000256082F31088EFF31082012484F3108853
:102350000468A5686D086D00A56082F310882022CE
:10236000DA600023436703670468626812020BD5D2
:10237000EFF31082012585F3108825680126B60643
:10238000B543256082F31088C26E012A02D0FFF7A0
:102390009DFA70BDC366EFF31082012383F31088AA
:1023A0000468256810239D43256082F31088026825
:1023B000D469E443E40600D41362898BFFF71AF86A
:1023C00070BD0000F0B50546044640358BB0288C42
:1023D00002902068C66901680691816804912146CF
:1023E00080310091C968222905D0816908221143F2
:1023F00081610BB0F0BD2F8D79E02068406A029AB0
:10240000A16D10400880A06D801CA065E88B401E67
:10241000E8832068C669710731D0F10709D00699B1
:10242000C90506D501210162009800690843009999
:102430000861B0070BD50498C00708D021680220B6
:102440000862009800690421084300990861700738
:102450000BD50498C00708D02168042008620098B2
:10246000006902210843009908610098006900286A
:1024700005D02046FFF709F8009900200861E88B95
:10248000002834D1EFF31080012181F310882168F6
:102490000A68FF2301339A430A6080F31088EFF340
:1024A0001080012181F3108821688A68304B1A401E
:1024B0008A6080F3108800982021C1600020606746
:1024C00020672168486800020BD5EFF310800122D5
:1024D00082F310880A6801239B069A430A6080F3FE
:1024E0001088E06E012829D02046FFF7EFF9002F71
:1024F00001D0B00681D4E88B002800D179E7298D7E
:102500008142FBD9EFF31080012181F3108821680B
:102510008B680122120793438B6080F31088154863
:102520006067EFF31080012181F310882268116841
:1025300020231943116080F310885AE70020E066D9
:10254000EFF31080012181F31088226813681021B5
:102550008B43136080F310882068C269D243D2068F
:1025600000D40162A98B2046FEF744FFBFE70000BC
:10257000FEFFFFEFF522000870B50146403103462B
:1025800080330C8CDD680268222D04D0906908210C
:102590000843906170BD526A2240846D2270826D42
:1025A000521C8265CA8B521ECA83CA8B002AF1D183
:1025B000EFF31082012484F3108804682568FF2655
:1025C0002136B543256082F31088EFF31082012491
:1025D00084F310880468A5686D086D00A56082F317
:1025E00010882022DA60002343670367046862686A
:1025F00012020BD5EFF31082012585F310882568B0
:102600000126B606B543256082F31088C26E012A02
:1026100002D0FFF75BF970BDC366EFF310820123B0
:1026200083F310880468256810239D43256082F396
:1026300010880268D469E443E40600D41362898BED
:10264000FEF7D8FE70BD0000F0B5054604464035E3
:102650008BB0288C02902068C66901680691816859
:102660000491214680310091C968222905D08169F1
:102670000822114381610BB0F0BD2F8D79E02068F5
:10268000406A02990840A16D0870A06D401CA065C9
:10269000E88B401EE8832068C669710731D0F107D6
:1026A00009D00699C90506D5012101620098006983
:1026B000084300990861B0070BD50498C00708D0FB
:1026C00021680220086200980069042108430099EB
:1026D000086170070BD50498C00708D02168042052
:1026E0000862009800690221084300990861009877
:1026F0000069002805D02046FEF7C7FE009900209B
:102700000861E88B002834D1EFF31080012181F3B8
:10271000108821680A68FF2301339A430A6080F316
:102720001088EFF31080012181F3108821688A68F6
:10273000304B1A408A6080F3108800992020C860CE
:102740000020606720672168486800020BD5EFF31E
:102750001080012282F310880A6801239B069A43A5
:102760000A6080F31088E06E012829D02046FFF728
:10277000ADF8002F01D0B00681D4E88B002800D13D
:1027800079E7298D8142FBD9EFF31081012080F395
:1027900010882068826801231B079A43826081F3B6
:1027A000108815486067EFF31080012181F31088CD
:1027B00021680A6820231A430A6080F310885AE7C8
:1027C0000020E066EFF31080012181F31088226879
:1027D000136810218B43136080F310882068C2694E
:1027E000D243D20600D40162A98B2046FEF702FE36
:1027F000BFE70000FEFFFFEF79250008F8B50446AB
:1028000080682169E26908436169002511432268F3
:10281000084311684B4B194001431160206841681F
:10282000032212039143E26811434160A169206AC7
:10283000084321688A68444B1A4002438A60206832
:10284000C16A626A090909011143C1623F492068EE
:10285000884211D13E4840698007800F0FD001287F
:1028600006D0022802D003280BD103E0022109E0A0
:10287000042107E0082105E03649884201D1002102
:1028800000E010210120E369C003334A334E344F86
:10289000834227D1002906D0022907D0042907D076
:1028A00008293FD108E0FEF7B7F803E0104603E03F
:1028B000FEF7C6F800283AD0616A4900715AFDF760
:1028C0008DFC616840004A088018FDF787FC0146CE
:1028D0001039B94226D82249491C01400007400F4F
:1028E000084322E0002906D0022907D0042907D096
:1028F000082917D108E0FEF78FF803E0104603E03F
:10290000FEF79EF8002812D0616A4900715AFDF75F
:1029100065FC61684A088018FDF760FC01461039C3
:10292000B94201D9012502E080B22168C860204681
:10293000012140304185018500206067A06728465D
:10294000F8BD0000F369FFCFFFF4FF11003801402C
:1029500040100240004400400024F400442D0008D0
:10296000EFFF000010B50548002181704170C17073
:10297000411D01220248FEF77DFF10BD000000202E
:1029800074000020F0B58165014640318A83CA8316
:1029900000254567012483682403FF26A34204D150
:1029A0000369002B13D13D4B0AE07F27002B09D090
:1029B00001263607B3420CD10369002B05D03F2313
:1029C0000B8407E00369002B01D00F8402E00E8422
:1029D00000E00D84034680331D612225DD60EFF3A6
:1029E0001083012585F310880568AE6801273E43F2
:1029F000AE6083F31088436E7D07AB4229D1098D09
:102A0000914226D88168A14202D1016900291DD0D6
:102A100023494167016900290CD0EFF3108101229D
:102A200082F3108802681368FF2401342343136083
:102A300081F31088EFF31081012282F3108800687F
:102A4000826801231B071A43826023E0154941670E
:102A5000F0E78168A14202D1016900290ED0124934
:102A60004167016900290BD0EFF31081012282F345
:102A7000108800680268FF23213309E00B49416791
:102A8000EFF31081012282F310880068026820238E
:102A90001A43026081F310880020F0BDFF0100009E
:102AA00049260008C523000879250008F5220008FA
:102AB000FFB581B005460E46044680350A9F32E0D8
:102AC000781C30D0FDF7C4FD0499401AB84218D8DC
:102AD000002F16D020680168490724D5802E22D007
:102AE000402E20D0C169C94309070CD408260662CC
:102AF0002046FFF7CDFB2E6100202871012005B094
:102B0000F0BD0320FBE7C069C04300050BD40120E2
:102B10002168C00208622046FFF7BAFB2020286126
:102B200000202871EDE72068C1693046884305D050
:102B3000002103988142C3D00020E0E70121F8E79B
:102B400010B50248FEF7A2FC10BD00007400002082
:102B500010B50B4804780B4800220168002C08D0FF
:102B6000094B012C07D0022C02D14A630068036490
:102B700010BD4A6300E04B630068026410BD0000B2
:102B80000000002028000020FFF900008307FF223A
:102B9000DB0E9A408907090E9940002808DB83085C
:102BA00009489B001B181868904308431860704739
:102BB0000007000F0838830804489B001B18D869D9
:102BC00090430843D861704700E400E000ED00E066
:102BD0008AB0FDF74BFDFFF761F8FEF71DFFFEF72A
:102BE0004BFFFEF7C5FF5348416B0124214341636E
:102BF000406B1421204005906846FDF7EDFA0C204B
:102C00000025694631C105263607694630460395D9
:102C1000FDF75CFC002204213046FDF712FD002286
:102C200008213046FDF70DFD00214348FEF764FB07
:102C30000C214148FEF760FBFFF78AFFFFF792FE89
:102C4000002202213046FDF7FCFC012700200690FF
:102C50000446059004213046FDF7EBFC6420FDF7A7
:102C600023FC641C032CF5DB002204213046FDF715
:102C7000E8FC324CE078002802D0E570FEF7AEFFA9
:102C80002079002814D025712B4E3068416B89B211
:102C90000891016C89B2079145633068056414207E
:102CA000FDF702FC306808994163306807990164B8
:102CB000052001210007FDF7B7FC0646012F02D0D1
:102CC000002F08D022E0002E20D1FDF7C1FC069095
:102CD000002005901AE0012E18D10598002815D182
:102CE000FDF7B6FC0699401A14280FD92078032165
:102CF000401CFDF773FA2170FFF72AFF2078FEF7DA
:102D00008DFF01200590C820FDF7CEFB3746FDF76B
:102D10009FFC2169411A0A48814207D9FDF798FCB6
:102D20002061052004210007FDF783FC0120FDF749
:102D3000BBFB9FE70010024028000020000000209D
:102D4000B80B0000010002000400060008000A00A1
:102D50000C00100020004000800000010101010370
:102D6000070100000804020408010101000000003E
:102D70000000000000000000000000000000000053
:102D80000000000000000000000000000100000042
:102D90000200000003000000040000000600000024
:102DA000070000000800000009000000000000000B
:102DB0000000000000000000000000000100000012
:102DC000020000000300000004000000EC2D0008D9
:102DD000000000202800000004010008142E000854
:102DE000280000204007000020010008010000002A
:102DF00000000000000000000000000000000000D3
:102E000000000000010000000400000000000000BD
:042E10000024F400A6
:04000005080000C12E
:00000001FF
